{
  "_format": "hh-sol-artifact-1",
  "contractName": "NFTMarketplace",
  "sourceName": "contracts/NFTMarketplace.sol",
  "abi": [
    {
      "inputs": [],
      "stateMutability": "nonpayable",
      "type": "constructor"
    },
    {
      "anonymous": false,
      "inputs": [
        {
          "indexed": true,
          "internalType": "address",
          "name": "owner",
          "type": "address"
        },
        {
          "indexed": true,
          "internalType": "address",
          "name": "approved",
          "type": "address"
        },
        {
          "indexed": true,
          "internalType": "uint256",
          "name": "tokenId",
          "type": "uint256"
        }
      ],
      "name": "Approval",
      "type": "event"
    },
    {
      "anonymous": false,
      "inputs": [
        {
          "indexed": true,
          "internalType": "address",
          "name": "owner",
          "type": "address"
        },
        {
          "indexed": true,
          "internalType": "address",
          "name": "operator",
          "type": "address"
        },
        {
          "indexed": false,
          "internalType": "bool",
          "name": "approved",
          "type": "bool"
        }
      ],
      "name": "ApprovalForAll",
      "type": "event"
    },
    {
      "anonymous": false,
      "inputs": [
        {
          "indexed": false,
          "internalType": "uint256",
          "name": "tokenId",
          "type": "uint256"
        },
        {
          "indexed": false,
          "internalType": "address payable",
          "name": "seller",
          "type": "address"
        },
        {
          "indexed": false,
          "internalType": "address payable",
          "name": "owner",
          "type": "address"
        },
        {
          "indexed": false,
          "internalType": "uint256",
          "name": "price",
          "type": "uint256"
        },
        {
          "indexed": false,
          "internalType": "bool",
          "name": "sold",
          "type": "bool"
        }
      ],
      "name": "MarketItemCreated",
      "type": "event"
    },
    {
      "anonymous": false,
      "inputs": [
        {
          "indexed": true,
          "internalType": "address",
          "name": "from",
          "type": "address"
        },
        {
          "indexed": true,
          "internalType": "address",
          "name": "to",
          "type": "address"
        },
        {
          "indexed": true,
          "internalType": "uint256",
          "name": "tokenId",
          "type": "uint256"
        }
      ],
      "name": "Transfer",
      "type": "event"
    },
    {
      "inputs": [
        {
          "internalType": "address",
          "name": "to",
          "type": "address"
        },
        {
          "internalType": "uint256",
          "name": "tokenId",
          "type": "uint256"
        }
      ],
      "name": "approve",
      "outputs": [],
      "stateMutability": "nonpayable",
      "type": "function"
    },
    {
      "inputs": [
        {
          "internalType": "address",
          "name": "owner",
          "type": "address"
        }
      ],
      "name": "balanceOf",
      "outputs": [
        {
          "internalType": "uint256",
          "name": "",
          "type": "uint256"
        }
      ],
      "stateMutability": "view",
      "type": "function"
    },
    {
      "inputs": [
        {
          "internalType": "uint256",
          "name": "tokenId",
          "type": "uint256"
        }
      ],
      "name": "createMarketSale",
      "outputs": [],
      "stateMutability": "payable",
      "type": "function"
    },
    {
      "inputs": [
        {
          "internalType": "string",
          "name": "tokenURI",
          "type": "string"
        },
        {
          "internalType": "uint256",
          "name": "price",
          "type": "uint256"
        }
      ],
      "name": "createToken",
      "outputs": [
        {
          "internalType": "uint256",
          "name": "",
          "type": "uint256"
        }
      ],
      "stateMutability": "payable",
      "type": "function"
    },
    {
      "inputs": [],
      "name": "fetchItemsListed",
      "outputs": [
        {
          "components": [
            {
              "internalType": "uint256",
              "name": "tokenId",
              "type": "uint256"
            },
            {
              "internalType": "address payable",
              "name": "seller",
              "type": "address"
            },
            {
              "internalType": "address payable",
              "name": "owner",
              "type": "address"
            },
            {
              "internalType": "uint256",
              "name": "price",
              "type": "uint256"
            },
            {
              "internalType": "bool",
              "name": "sold",
              "type": "bool"
            }
          ],
          "internalType": "struct NFTMarketplace.MarketItem[]",
          "name": "",
          "type": "tuple[]"
        }
      ],
      "stateMutability": "view",
      "type": "function"
    },
    {
      "inputs": [],
      "name": "fetchMarketItems",
      "outputs": [
        {
          "components": [
            {
              "internalType": "uint256",
              "name": "tokenId",
              "type": "uint256"
            },
            {
              "internalType": "address payable",
              "name": "seller",
              "type": "address"
            },
            {
              "internalType": "address payable",
              "name": "owner",
              "type": "address"
            },
            {
              "internalType": "uint256",
              "name": "price",
              "type": "uint256"
            },
            {
              "internalType": "bool",
              "name": "sold",
              "type": "bool"
            }
          ],
          "internalType": "struct NFTMarketplace.MarketItem[]",
          "name": "",
          "type": "tuple[]"
        }
      ],
      "stateMutability": "view",
      "type": "function"
    },
    {
      "inputs": [],
      "name": "fetchMyNFTs",
      "outputs": [
        {
          "components": [
            {
              "internalType": "uint256",
              "name": "tokenId",
              "type": "uint256"
            },
            {
              "internalType": "address payable",
              "name": "seller",
              "type": "address"
            },
            {
              "internalType": "address payable",
              "name": "owner",
              "type": "address"
            },
            {
              "internalType": "uint256",
              "name": "price",
              "type": "uint256"
            },
            {
              "internalType": "bool",
              "name": "sold",
              "type": "bool"
            }
          ],
          "internalType": "struct NFTMarketplace.MarketItem[]",
          "name": "",
          "type": "tuple[]"
        }
      ],
      "stateMutability": "view",
      "type": "function"
    },
    {
      "inputs": [
        {
          "internalType": "uint256",
          "name": "tokenId",
          "type": "uint256"
        }
      ],
      "name": "getApproved",
      "outputs": [
        {
          "internalType": "address",
          "name": "",
          "type": "address"
        }
      ],
      "stateMutability": "view",
      "type": "function"
    },
    {
      "inputs": [],
      "name": "getListingPrice",
      "outputs": [
        {
          "internalType": "uint256",
          "name": "",
          "type": "uint256"
        }
      ],
      "stateMutability": "view",
      "type": "function"
    },
    {
      "inputs": [
        {
          "internalType": "address",
          "name": "owner",
          "type": "address"
        },
        {
          "internalType": "address",
          "name": "operator",
          "type": "address"
        }
      ],
      "name": "isApprovedForAll",
      "outputs": [
        {
          "internalType": "bool",
          "name": "",
          "type": "bool"
        }
      ],
      "stateMutability": "view",
      "type": "function"
    },
    {
      "inputs": [],
      "name": "name",
      "outputs": [
        {
          "internalType": "string",
          "name": "",
          "type": "string"
        }
      ],
      "stateMutability": "view",
      "type": "function"
    },
    {
      "inputs": [
        {
          "internalType": "uint256",
          "name": "tokenId",
          "type": "uint256"
        }
      ],
      "name": "ownerOf",
      "outputs": [
        {
          "internalType": "address",
          "name": "",
          "type": "address"
        }
      ],
      "stateMutability": "view",
      "type": "function"
    },
    {
      "inputs": [
        {
          "internalType": "uint256",
          "name": "tokenId",
          "type": "uint256"
        },
        {
          "internalType": "uint256",
          "name": "price",
          "type": "uint256"
        }
      ],
      "name": "resellToken",
      "outputs": [],
      "stateMutability": "payable",
      "type": "function"
    },
    {
      "inputs": [
        {
          "internalType": "address",
          "name": "from",
          "type": "address"
        },
        {
          "internalType": "address",
          "name": "to",
          "type": "address"
        },
        {
          "internalType": "uint256",
          "name": "tokenId",
          "type": "uint256"
        }
      ],
      "name": "safeTransferFrom",
      "outputs": [],
      "stateMutability": "nonpayable",
      "type": "function"
    },
    {
      "inputs": [
        {
          "internalType": "address",
          "name": "from",
          "type": "address"
        },
        {
          "internalType": "address",
          "name": "to",
          "type": "address"
        },
        {
          "internalType": "uint256",
          "name": "tokenId",
          "type": "uint256"
        },
        {
          "internalType": "bytes",
          "name": "data",
          "type": "bytes"
        }
      ],
      "name": "safeTransferFrom",
      "outputs": [],
      "stateMutability": "nonpayable",
      "type": "function"
    },
    {
      "inputs": [
        {
          "internalType": "address",
          "name": "operator",
          "type": "address"
        },
        {
          "internalType": "bool",
          "name": "approved",
          "type": "bool"
        }
      ],
      "name": "setApprovalForAll",
      "outputs": [],
      "stateMutability": "nonpayable",
      "type": "function"
    },
    {
      "inputs": [
        {
          "internalType": "bytes4",
          "name": "interfaceId",
          "type": "bytes4"
        }
      ],
      "name": "supportsInterface",
      "outputs": [
        {
          "internalType": "bool",
          "name": "",
          "type": "bool"
        }
      ],
      "stateMutability": "view",
      "type": "function"
    },
    {
      "inputs": [],
      "name": "symbol",
      "outputs": [
        {
          "internalType": "string",
          "name": "",
          "type": "string"
        }
      ],
      "stateMutability": "view",
      "type": "function"
    },
    {
      "inputs": [
        {
          "internalType": "uint256",
          "name": "tokenId",
          "type": "uint256"
        }
      ],
      "name": "tokenURI",
      "outputs": [
        {
          "internalType": "string",
          "name": "",
          "type": "string"
        }
      ],
      "stateMutability": "view",
      "type": "function"
    },
    {
      "inputs": [
        {
          "internalType": "address",
          "name": "from",
          "type": "address"
        },
        {
          "internalType": "address",
          "name": "to",
          "type": "address"
        },
        {
          "internalType": "uint256",
          "name": "tokenId",
          "type": "uint256"
        }
      ],
      "name": "transferFrom",
      "outputs": [],
      "stateMutability": "nonpayable",
      "type": "function"
    },
    {
      "inputs": [
        {
          "internalType": "uint256",
          "name": "_price",
          "type": "uint256"
        }
      ],
      "name": "updateListingPrice",
      "outputs": [],
      "stateMutability": "nonpayable",
      "type": "function"
    }
  ],
  "bytecode": "0x60806040526703782dace9d900006009553480156200001d57600080fd5b506040518060400160405280600781526020017f4d79546f6b656e000000000000000000000000000000000000000000000000008152506040518060400160405280600381526020017f4d5454000000000000000000000000000000000000000000000000000000000081525081600090816200009b919062000371565b508060019081620000ad919062000371565b50505033600a60006101000a81548173ffffffffffffffffffffffffffffffffffffffff021916908373ffffffffffffffffffffffffffffffffffffffff16021790555062000458565b600081519050919050565b7f4e487b7100000000000000000000000000000000000000000000000000000000600052604160045260246000fd5b7f4e487b7100000000000000000000000000000000000000000000000000000000600052602260045260246000fd5b600060028204905060018216806200017957607f821691505b6020821081036200018f576200018e62000131565b5b50919050565b60008190508160005260206000209050919050565b60006020601f8301049050919050565b600082821b905092915050565b600060088302620001f97fffffffffffffffffffffffffffffffffffffffffffffffffffffffffffffffff82620001ba565b620002058683620001ba565b95508019841693508086168417925050509392505050565b6000819050919050565b6000819050919050565b6000620002526200024c62000246846200021d565b62000227565b6200021d565b9050919050565b6000819050919050565b6200026e8362000231565b620002866200027d8262000259565b848454620001c7565b825550505050565b600090565b6200029d6200028e565b620002aa81848462000263565b505050565b5b81811015620002d257620002c660008262000293565b600181019050620002b0565b5050565b601f8211156200032157620002eb8162000195565b620002f684620001aa565b8101602085101562000306578190505b6200031e6200031585620001aa565b830182620002af565b50505b505050565b600082821c905092915050565b6000620003466000198460080262000326565b1980831691505092915050565b600062000361838362000333565b9150826002028217905092915050565b6200037c82620000f7565b67ffffffffffffffff81111562000398576200039762000102565b5b620003a4825462000160565b620003b1828285620002d6565b600060209050601f831160018114620003e95760008415620003d4578287015190505b620003e0858262000353565b86555062000450565b601f198416620003f98662000195565b60005b828110156200042357848901518255600182019150602085019450602081019050620003fc565b868310156200044357848901516200043f601f89168262000333565b8355505b6001600288020188555050505b505050505050565b6141ab80620004686000396000f3fe60806040526004361061012a5760003560e01c80636352211e116100ab578063ae677aa31161006f578063ae677aa3146103f9578063b88d4fde14610422578063be9af5361461044b578063c87b56dd14610467578063e219fc75146104a4578063e985e9c5146104c05761012a565b80636352211e146102fb57806370a082311461033857806372b3b6201461037557806395d89b41146103a5578063a22cb465146103d05761012a565b806312e85585116100f257806312e8558514610228578063202e37401461025357806323b872dd1461027e57806342842e0e146102a757806345f8fa80146102d05761012a565b806301ffc9a71461012f57806306fdde031461016c578063081812fc14610197578063095ea7b3146101d45780630f08efe0146101fd575b600080fd5b34801561013b57600080fd5b5061015660048036038101906101519190612984565b6104fd565b60405161016391906129cc565b60405180910390f35b34801561017857600080fd5b506101816105df565b60405161018e9190612a77565b60405180910390f35b3480156101a357600080fd5b506101be60048036038101906101b99190612acf565b610671565b6040516101cb9190612b3d565b60405180910390f35b3480156101e057600080fd5b506101fb60048036038101906101f69190612b84565b6106b7565b005b34801561020957600080fd5b506102126107ce565b60405161021f9190612d1a565b60405180910390f35b34801561023457600080fd5b5061023d610a36565b60405161024a9190612d4b565b60405180910390f35b34801561025f57600080fd5b50610268610a40565b6040516102759190612d1a565b60405180910390f35b34801561028a57600080fd5b506102a560048036038101906102a09190612d66565b610d2c565b005b3480156102b357600080fd5b506102ce60048036038101906102c99190612d66565b610d8c565b005b3480156102dc57600080fd5b506102e5610dac565b6040516102f29190612d1a565b60405180910390f35b34801561030757600080fd5b50610322600480360381019061031d9190612acf565b611098565b60405161032f9190612b3d565b60405180910390f35b34801561034457600080fd5b5061035f600480360381019061035a9190612db9565b611149565b60405161036c9190612d4b565b60405180910390f35b61038f600480360381019061038a9190612f1b565b611200565b60405161039c9190612d4b565b60405180910390f35b3480156103b157600080fd5b506103ba611242565b6040516103c79190612a77565b60405180910390f35b3480156103dc57600080fd5b506103f760048036038101906103f29190612fa3565b6112d4565b005b34801561040557600080fd5b50610420600480360381019061041b9190612acf565b6112ea565b005b34801561042e57600080fd5b5061044960048036038101906104449190613084565b611384565b005b61046560048036038101906104609190612acf565b6113e6565b005b34801561047357600080fd5b5061048e60048036038101906104899190612acf565b61161e565b60405161049b9190612a77565b60405180910390f35b6104be60048036038101906104b99190613107565b611730565b005b3480156104cc57600080fd5b506104e760048036038101906104e29190613147565b611925565b6040516104f491906129cc565b60405180910390f35b60007f80ac58cd000000000000000000000000000000000000000000000000000000007bffffffffffffffffffffffffffffffffffffffffffffffffffffffff1916827bffffffffffffffffffffffffffffffffffffffffffffffffffffffff191614806105c857507f5b5e139f000000000000000000000000000000000000000000000000000000007bffffffffffffffffffffffffffffffffffffffffffffffffffffffff1916827bffffffffffffffffffffffffffffffffffffffffffffffffffffffff1916145b806105d857506105d7826119b9565b5b9050919050565b6060600080546105ee906131b6565b80601f016020809104026020016040519081016040528092919081815260200182805461061a906131b6565b80156106675780601f1061063c57610100808354040283529160200191610667565b820191906000526020600020905b81548152906001019060200180831161064a57829003601f168201915b5050505050905090565b600061067c82611a23565b6004600083815260200190815260200160002060009054906101000a900473ffffffffffffffffffffffffffffffffffffffff169050919050565b60006106c282611098565b90508073ffffffffffffffffffffffffffffffffffffffff168373ffffffffffffffffffffffffffffffffffffffff1603610732576040517f08c379a000000000000000000000000000000000000000000000000000000000815260040161072990613259565b60405180910390fd5b8073ffffffffffffffffffffffffffffffffffffffff16610751611a6e565b73ffffffffffffffffffffffffffffffffffffffff161480610780575061077f8161077a611a6e565b611925565b5b6107bf576040517f08c379a00000000000000000000000000000000000000000000000000000000081526004016107b6906132eb565b60405180910390fd5b6107c98383611a76565b505050565b606060006107dc6007611b2f565b905060006107ea6008611b2f565b6107f46007611b2f565b6107fe919061333a565b90506000808267ffffffffffffffff81111561081d5761081c612df0565b5b60405190808252806020026020018201604052801561085657816020015b6108436128bb565b81526020019060019003908161083b5790505b50905060005b84811015610a2b573073ffffffffffffffffffffffffffffffffffffffff16600b600060018461088c919061336e565b815260200190815260200160002060020160009054906101000a900473ffffffffffffffffffffffffffffffffffffffff1673ffffffffffffffffffffffffffffffffffffffff1603610a185760006001826108e8919061336e565b90506000600b60008381526020019081526020016000209050806040518060a0016040529081600082015481526020016001820160009054906101000a900473ffffffffffffffffffffffffffffffffffffffff1673ffffffffffffffffffffffffffffffffffffffff1673ffffffffffffffffffffffffffffffffffffffff1681526020016002820160009054906101000a900473ffffffffffffffffffffffffffffffffffffffff1673ffffffffffffffffffffffffffffffffffffffff1673ffffffffffffffffffffffffffffffffffffffff168152602001600382015481526020016004820160009054906101000a900460ff1615151515815250508486815181106109fb576109fa6133a2565b5b6020026020010181905250600185610a13919061336e565b945050505b8080610a23906133d1565b91505061085c565b508094505050505090565b6000600954905090565b60606000610a4e6007611b2f565b905060008060005b83811015610af6573373ffffffffffffffffffffffffffffffffffffffff16600b6000600184610a86919061336e565b815260200190815260200160002060020160009054906101000a900473ffffffffffffffffffffffffffffffffffffffff1673ffffffffffffffffffffffffffffffffffffffff1603610ae357600183610ae0919061336e565b92505b8080610aee906133d1565b915050610a56565b5060008267ffffffffffffffff811115610b1357610b12612df0565b5b604051908082528060200260200182016040528015610b4c57816020015b610b396128bb565b815260200190600190039081610b315790505b50905060005b84811015610d21573373ffffffffffffffffffffffffffffffffffffffff16600b6000600184610b82919061336e565b815260200190815260200160002060020160009054906101000a900473ffffffffffffffffffffffffffffffffffffffff1673ffffffffffffffffffffffffffffffffffffffff1603610d0e576000600182610bde919061336e565b90506000600b60008381526020019081526020016000209050806040518060a0016040529081600082015481526020016001820160009054906101000a900473ffffffffffffffffffffffffffffffffffffffff1673ffffffffffffffffffffffffffffffffffffffff1673ffffffffffffffffffffffffffffffffffffffff1681526020016002820160009054906101000a900473ffffffffffffffffffffffffffffffffffffffff1673ffffffffffffffffffffffffffffffffffffffff1673ffffffffffffffffffffffffffffffffffffffff168152602001600382015481526020016004820160009054906101000a900460ff161515151581525050848681518110610cf157610cf06133a2565b5b6020026020010181905250600185610d09919061336e565b945050505b8080610d19906133d1565b915050610b52565b508094505050505090565b610d3d610d37611a6e565b82611b3d565b610d7c576040517f08c379a0000000000000000000000000000000000000000000000000000000008152600401610d739061348b565b60405180910390fd5b610d87838383611bd2565b505050565b610da783838360405180602001604052806000815250611384565b505050565b60606000610dba6007611b2f565b905060008060005b83811015610e62573373ffffffffffffffffffffffffffffffffffffffff16600b6000600184610df2919061336e565b815260200190815260200160002060010160009054906101000a900473ffffffffffffffffffffffffffffffffffffffff1673ffffffffffffffffffffffffffffffffffffffff1603610e4f57600183610e4c919061336e565b92505b8080610e5a906133d1565b915050610dc2565b5060008267ffffffffffffffff811115610e7f57610e7e612df0565b5b604051908082528060200260200182016040528015610eb857816020015b610ea56128bb565b815260200190600190039081610e9d5790505b50905060005b8481101561108d573373ffffffffffffffffffffffffffffffffffffffff16600b6000600184610eee919061336e565b815260200190815260200160002060010160009054906101000a900473ffffffffffffffffffffffffffffffffffffffff1673ffffffffffffffffffffffffffffffffffffffff160361107a576000600182610f4a919061336e565b90506000600b60008381526020019081526020016000209050806040518060a0016040529081600082015481526020016001820160009054906101000a900473ffffffffffffffffffffffffffffffffffffffff1673ffffffffffffffffffffffffffffffffffffffff1673ffffffffffffffffffffffffffffffffffffffff1681526020016002820160009054906101000a900473ffffffffffffffffffffffffffffffffffffffff1673ffffffffffffffffffffffffffffffffffffffff1673ffffffffffffffffffffffffffffffffffffffff168152602001600382015481526020016004820160009054906101000a900460ff16151515158152505084868151811061105d5761105c6133a2565b5b6020026020010181905250600185611075919061336e565b945050505b8080611085906133d1565b915050610ebe565b508094505050505090565b6000806002600084815260200190815260200160002060009054906101000a900473ffffffffffffffffffffffffffffffffffffffff169050600073ffffffffffffffffffffffffffffffffffffffff168173ffffffffffffffffffffffffffffffffffffffff1603611140576040517f08c379a0000000000000000000000000000000000000000000000000000000008152600401611137906134f7565b60405180910390fd5b80915050919050565b60008073ffffffffffffffffffffffffffffffffffffffff168273ffffffffffffffffffffffffffffffffffffffff16036111b9576040517f08c379a00000000000000000000000000000000000000000000000000000000081526004016111b090613589565b60405180910390fd5b600360008373ffffffffffffffffffffffffffffffffffffffff1673ffffffffffffffffffffffffffffffffffffffff168152602001908152602001600020549050919050565b600061120c6007611e38565b60006112186007611b2f565b90506112243382611e4e565b61122e8185612027565b6112388184612094565b8091505092915050565b606060018054611251906131b6565b80601f016020809104026020016040519081016040528092919081815260200182805461127d906131b6565b80156112ca5780601f1061129f576101008083540402835291602001916112ca565b820191906000526020600020905b8154815290600101906020018083116112ad57829003601f168201915b5050505050905090565b6112e66112df611a6e565b8383612298565b5050565b600a60009054906101000a900473ffffffffffffffffffffffffffffffffffffffff1673ffffffffffffffffffffffffffffffffffffffff163373ffffffffffffffffffffffffffffffffffffffff161461137a576040517f08c379a0000000000000000000000000000000000000000000000000000000008152600401611371906135f5565b60405180910390fd5b8060098190555050565b61139561138f611a6e565b83611b3d565b6113d4576040517f08c379a00000000000000000000000000000000000000000000000000000000081526004016113cb9061348b565b60405180910390fd5b6113e084848484612404565b50505050565b6000600b6000838152602001908152602001600020600301549050803414611443576040517f08c379a000000000000000000000000000000000000000000000000000000000815260040161143a90613687565b60405180910390fd5b33600b600084815260200190815260200160002060020160006101000a81548173ffffffffffffffffffffffffffffffffffffffff021916908373ffffffffffffffffffffffffffffffffffffffff1602179055506001600b600084815260200190815260200160002060040160006101000a81548160ff0219169083151502179055506000600b600084815260200190815260200160002060010160006101000a81548173ffffffffffffffffffffffffffffffffffffffff021916908373ffffffffffffffffffffffffffffffffffffffff1602179055506115276008611e38565b611532303384611bd2565b600a60009054906101000a900473ffffffffffffffffffffffffffffffffffffffff1673ffffffffffffffffffffffffffffffffffffffff166108fc6009549081150290604051600060405180830381858888f1935050505015801561159c573d6000803e3d6000fd5b50600b600083815260200190815260200160002060010160009054906101000a900473ffffffffffffffffffffffffffffffffffffffff1673ffffffffffffffffffffffffffffffffffffffff166108fc349081150290604051600060405180830381858888f19350505050158015611619573d6000803e3d6000fd5b505050565b606061162982611a23565b6000600660008481526020019081526020016000208054611649906131b6565b80601f0160208091040260200160405190810160405280929190818152602001828054611675906131b6565b80156116c25780601f10611697576101008083540402835291602001916116c2565b820191906000526020600020905b8154815290600101906020018083116116a557829003601f168201915b5050505050905060006116d3612460565b905060008151036116e857819250505061172b565b60008251111561171d5780826040516020016117059291906136e3565b6040516020818303038152906040529250505061172b565b61172684612477565b925050505b919050565b3373ffffffffffffffffffffffffffffffffffffffff16600b600084815260200190815260200160002060020160009054906101000a900473ffffffffffffffffffffffffffffffffffffffff1673ffffffffffffffffffffffffffffffffffffffff16146117d4576040517f08c379a00000000000000000000000000000000000000000000000000000000081526004016117cb90613779565b60405180910390fd5b6009543414611818576040517f08c379a000000000000000000000000000000000000000000000000000000000815260040161180f9061380b565b60405180910390fd5b6000600b600084815260200190815260200160002060040160006101000a81548160ff02191690831515021790555080600b60008481526020019081526020016000206003018190555033600b600084815260200190815260200160002060010160006101000a81548173ffffffffffffffffffffffffffffffffffffffff021916908373ffffffffffffffffffffffffffffffffffffffff16021790555030600b600084815260200190815260200160002060020160006101000a81548173ffffffffffffffffffffffffffffffffffffffff021916908373ffffffffffffffffffffffffffffffffffffffff16021790555061191660086124df565b611921333084611bd2565b5050565b6000600560008473ffffffffffffffffffffffffffffffffffffffff1673ffffffffffffffffffffffffffffffffffffffff16815260200190815260200160002060008373ffffffffffffffffffffffffffffffffffffffff1673ffffffffffffffffffffffffffffffffffffffff16815260200190815260200160002060009054906101000a900460ff16905092915050565b60007f01ffc9a7000000000000000000000000000000000000000000000000000000007bffffffffffffffffffffffffffffffffffffffffffffffffffffffff1916827bffffffffffffffffffffffffffffffffffffffffffffffffffffffff1916149050919050565b611a2c8161253b565b611a6b576040517f08c379a0000000000000000000000000000000000000000000000000000000008152600401611a62906134f7565b60405180910390fd5b50565b600033905090565b816004600083815260200190815260200160002060006101000a81548173ffffffffffffffffffffffffffffffffffffffff021916908373ffffffffffffffffffffffffffffffffffffffff160217905550808273ffffffffffffffffffffffffffffffffffffffff16611ae983611098565b73ffffffffffffffffffffffffffffffffffffffff167f8c5be1e5ebec7d5bd14f71427d1e84f3dd0314c0f7b2291e5b200ac8c7c3b92560405160405180910390a45050565b600081600001549050919050565b600080611b4983611098565b90508073ffffffffffffffffffffffffffffffffffffffff168473ffffffffffffffffffffffffffffffffffffffff161480611b8b5750611b8a8185611925565b5b80611bc957508373ffffffffffffffffffffffffffffffffffffffff16611bb184610671565b73ffffffffffffffffffffffffffffffffffffffff16145b91505092915050565b8273ffffffffffffffffffffffffffffffffffffffff16611bf282611098565b73ffffffffffffffffffffffffffffffffffffffff1614611c48576040517f08c379a0000000000000000000000000000000000000000000000000000000008152600401611c3f9061389d565b60405180910390fd5b600073ffffffffffffffffffffffffffffffffffffffff168273ffffffffffffffffffffffffffffffffffffffff1603611cb7576040517f08c379a0000000000000000000000000000000000000000000000000000000008152600401611cae9061392f565b60405180910390fd5b611cc28383836125a7565b611ccd600082611a76565b6001600360008573ffffffffffffffffffffffffffffffffffffffff1673ffffffffffffffffffffffffffffffffffffffff1681526020019081526020016000206000828254611d1d919061333a565b925050819055506001600360008473ffffffffffffffffffffffffffffffffffffffff1673ffffffffffffffffffffffffffffffffffffffff1681526020019081526020016000206000828254611d74919061336e565b92505081905550816002600083815260200190815260200160002060006101000a81548173ffffffffffffffffffffffffffffffffffffffff021916908373ffffffffffffffffffffffffffffffffffffffff160217905550808273ffffffffffffffffffffffffffffffffffffffff168473ffffffffffffffffffffffffffffffffffffffff167fddf252ad1be2c89b69c2b068fc378daa952ba7f163c4a11628f55a4df523b3ef60405160405180910390a4611e338383836125ac565b505050565b6001816000016000828254019250508190555050565b600073ffffffffffffffffffffffffffffffffffffffff168273ffffffffffffffffffffffffffffffffffffffff1603611ebd576040517f08c379a0000000000000000000000000000000000000000000000000000000008152600401611eb49061399b565b60405180910390fd5b611ec68161253b565b15611f06576040517f08c379a0000000000000000000000000000000000000000000000000000000008152600401611efd90613a07565b60405180910390fd5b611f12600083836125a7565b6001600360008473ffffffffffffffffffffffffffffffffffffffff1673ffffffffffffffffffffffffffffffffffffffff1681526020019081526020016000206000828254611f62919061336e565b92505081905550816002600083815260200190815260200160002060006101000a81548173ffffffffffffffffffffffffffffffffffffffff021916908373ffffffffffffffffffffffffffffffffffffffff160217905550808273ffffffffffffffffffffffffffffffffffffffff16600073ffffffffffffffffffffffffffffffffffffffff167fddf252ad1be2c89b69c2b068fc378daa952ba7f163c4a11628f55a4df523b3ef60405160405180910390a4612023600083836125ac565b5050565b6120308261253b565b61206f576040517f08c379a000000000000000000000000000000000000000000000000000000000815260040161206690613a99565b60405180910390fd5b8060066000848152602001908152602001600020908161208f9190613c65565b505050565b600081116120d7576040517f08c379a00000000000000000000000000000000000000000000000000000000081526004016120ce90613d83565b60405180910390fd5b600954341461211b576040517f08c379a000000000000000000000000000000000000000000000000000000000815260040161211290613e15565b60405180910390fd5b6040518060a001604052808381526020013373ffffffffffffffffffffffffffffffffffffffff1681526020013073ffffffffffffffffffffffffffffffffffffffff16815260200182815260200160001515815250600b60008481526020019081526020016000206000820151816000015560208201518160010160006101000a81548173ffffffffffffffffffffffffffffffffffffffff021916908373ffffffffffffffffffffffffffffffffffffffff16021790555060408201518160020160006101000a81548173ffffffffffffffffffffffffffffffffffffffff021916908373ffffffffffffffffffffffffffffffffffffffff1602179055506060820151816003015560808201518160040160006101000a81548160ff021916908315150217905550905050612254333084611bd2565b7fb640004f1d14576d0c209e240cad0410e0d8c0c33a09375861fbadae2588a98d82333084600060405161228c959493929190613e44565b60405180910390a15050565b8173ffffffffffffffffffffffffffffffffffffffff168373ffffffffffffffffffffffffffffffffffffffff1603612306576040517f08c379a00000000000000000000000000000000000000000000000000000000081526004016122fd90613ee3565b60405180910390fd5b80600560008573ffffffffffffffffffffffffffffffffffffffff1673ffffffffffffffffffffffffffffffffffffffff16815260200190815260200160002060008473ffffffffffffffffffffffffffffffffffffffff1673ffffffffffffffffffffffffffffffffffffffff16815260200190815260200160002060006101000a81548160ff0219169083151502179055508173ffffffffffffffffffffffffffffffffffffffff168373ffffffffffffffffffffffffffffffffffffffff167f17307eab39ab6107e8899845ad3d59bd9653f200f220920489ca2b5937696c31836040516123f791906129cc565b60405180910390a3505050565b61240f848484611bd2565b61241b848484846125b1565b61245a576040517f08c379a000000000000000000000000000000000000000000000000000000000815260040161245190613f75565b60405180910390fd5b50505050565b606060405180602001604052806000815250905090565b606061248282611a23565b600061248c612460565b905060008151116124ac57604051806020016040528060008152506124d7565b806124b684612738565b6040516020016124c79291906136e3565b6040516020818303038152906040525b915050919050565b6000816000015490506000811161252b576040517f08c379a000000000000000000000000000000000000000000000000000000000815260040161252290613fe1565b60405180910390fd5b6001810382600001819055505050565b60008073ffffffffffffffffffffffffffffffffffffffff166002600084815260200190815260200160002060009054906101000a900473ffffffffffffffffffffffffffffffffffffffff1673ffffffffffffffffffffffffffffffffffffffff1614159050919050565b505050565b505050565b60006125d28473ffffffffffffffffffffffffffffffffffffffff16612898565b1561272b578373ffffffffffffffffffffffffffffffffffffffff1663150b7a026125fb611a6e565b8786866040518563ffffffff1660e01b815260040161261d9493929190614056565b6020604051808303816000875af192505050801561265957506040513d601f19601f8201168201806040525081019061265691906140b7565b60015b6126db573d8060008114612689576040519150601f19603f3d011682016040523d82523d6000602084013e61268e565b606091505b5060008151036126d3576040517f08c379a00000000000000000000000000000000000000000000000000000000081526004016126ca90613f75565b60405180910390fd5b805181602001fd5b63150b7a0260e01b7bffffffffffffffffffffffffffffffffffffffffffffffffffffffff1916817bffffffffffffffffffffffffffffffffffffffffffffffffffffffff191614915050612730565b600190505b949350505050565b60606000820361277f576040518060400160405280600181526020017f30000000000000000000000000000000000000000000000000000000000000008152509050612893565b600082905060005b600082146127b157808061279a906133d1565b915050600a826127aa9190614113565b9150612787565b60008167ffffffffffffffff8111156127cd576127cc612df0565b5b6040519080825280601f01601f1916602001820160405280156127ff5781602001600182028036833780820191505090505b5090505b6000851461288c57600182612818919061333a565b9150600a856128279190614144565b6030612833919061336e565b60f81b818381518110612849576128486133a2565b5b60200101907effffffffffffffffffffffffffffffffffffffffffffffffffffffffffffff1916908160001a905350600a856128859190614113565b9450612803565b8093505050505b919050565b6000808273ffffffffffffffffffffffffffffffffffffffff163b119050919050565b6040518060a0016040528060008152602001600073ffffffffffffffffffffffffffffffffffffffff168152602001600073ffffffffffffffffffffffffffffffffffffffff168152602001600081526020016000151581525090565b6000604051905090565b600080fd5b600080fd5b60007fffffffff0000000000000000000000000000000000000000000000000000000082169050919050565b6129618161292c565b811461296c57600080fd5b50565b60008135905061297e81612958565b92915050565b60006020828403121561299a57612999612922565b5b60006129a88482850161296f565b91505092915050565b60008115159050919050565b6129c6816129b1565b82525050565b60006020820190506129e160008301846129bd565b92915050565b600081519050919050565b600082825260208201905092915050565b60005b83811015612a21578082015181840152602081019050612a06565b60008484015250505050565b6000601f19601f8301169050919050565b6000612a49826129e7565b612a5381856129f2565b9350612a63818560208601612a03565b612a6c81612a2d565b840191505092915050565b60006020820190508181036000830152612a918184612a3e565b905092915050565b6000819050919050565b612aac81612a99565b8114612ab757600080fd5b50565b600081359050612ac981612aa3565b92915050565b600060208284031215612ae557612ae4612922565b5b6000612af384828501612aba565b91505092915050565b600073ffffffffffffffffffffffffffffffffffffffff82169050919050565b6000612b2782612afc565b9050919050565b612b3781612b1c565b82525050565b6000602082019050612b526000830184612b2e565b92915050565b612b6181612b1c565b8114612b6c57600080fd5b50565b600081359050612b7e81612b58565b92915050565b60008060408385031215612b9b57612b9a612922565b5b6000612ba985828601612b6f565b9250506020612bba85828601612aba565b9150509250929050565b600081519050919050565b600082825260208201905092915050565b6000819050602082019050919050565b612bf981612a99565b82525050565b6000612c0a82612afc565b9050919050565b612c1a81612bff565b82525050565b612c29816129b1565b82525050565b60a082016000820151612c456000850182612bf0565b506020820151612c586020850182612c11565b506040820151612c6b6040850182612c11565b506060820151612c7e6060850182612bf0565b506080820151612c916080850182612c20565b50505050565b6000612ca38383612c2f565b60a08301905092915050565b6000602082019050919050565b6000612cc782612bc4565b612cd18185612bcf565b9350612cdc83612be0565b8060005b83811015612d0d578151612cf48882612c97565b9750612cff83612caf565b925050600181019050612ce0565b5085935050505092915050565b60006020820190508181036000830152612d348184612cbc565b905092915050565b612d4581612a99565b82525050565b6000602082019050612d606000830184612d3c565b92915050565b600080600060608486031215612d7f57612d7e612922565b5b6000612d8d86828701612b6f565b9350506020612d9e86828701612b6f565b9250506040612daf86828701612aba565b9150509250925092565b600060208284031215612dcf57612dce612922565b5b6000612ddd84828501612b6f565b91505092915050565b600080fd5b600080fd5b7f4e487b7100000000000000000000000000000000000000000000000000000000600052604160045260246000fd5b612e2882612a2d565b810181811067ffffffffffffffff82111715612e4757612e46612df0565b5b80604052505050565b6000612e5a612918565b9050612e668282612e1f565b919050565b600067ffffffffffffffff821115612e8657612e85612df0565b5b612e8f82612a2d565b9050602081019050919050565b82818337600083830152505050565b6000612ebe612eb984612e6b565b612e50565b905082815260208101848484011115612eda57612ed9612deb565b5b612ee5848285612e9c565b509392505050565b600082601f830112612f0257612f01612de6565b5b8135612f12848260208601612eab565b91505092915050565b60008060408385031215612f3257612f31612922565b5b600083013567ffffffffffffffff811115612f5057612f4f612927565b5b612f5c85828601612eed565b9250506020612f6d85828601612aba565b9150509250929050565b612f80816129b1565b8114612f8b57600080fd5b50565b600081359050612f9d81612f77565b92915050565b60008060408385031215612fba57612fb9612922565b5b6000612fc885828601612b6f565b9250506020612fd985828601612f8e565b9150509250929050565b600067ffffffffffffffff821115612ffe57612ffd612df0565b5b61300782612a2d565b9050602081019050919050565b600061302761302284612fe3565b612e50565b90508281526020810184848401111561304357613042612deb565b5b61304e848285612e9c565b509392505050565b600082601f83011261306b5761306a612de6565b5b813561307b848260208601613014565b91505092915050565b6000806000806080858703121561309e5761309d612922565b5b60006130ac87828801612b6f565b94505060206130bd87828801612b6f565b93505060406130ce87828801612aba565b925050606085013567ffffffffffffffff8111156130ef576130ee612927565b5b6130fb87828801613056565b91505092959194509250565b6000806040838503121561311e5761311d612922565b5b600061312c85828601612aba565b925050602061313d85828601612aba565b9150509250929050565b6000806040838503121561315e5761315d612922565b5b600061316c85828601612b6f565b925050602061317d85828601612b6f565b9150509250929050565b7f4e487b7100000000000000000000000000000000000000000000000000000000600052602260045260246000fd5b600060028204905060018216806131ce57607f821691505b6020821081036131e1576131e0613187565b5b50919050565b7f4552433732313a20617070726f76616c20746f2063757272656e74206f776e6560008201527f7200000000000000000000000000000000000000000000000000000000000000602082015250565b60006132436021836129f2565b915061324e826131e7565b604082019050919050565b6000602082019050818103600083015261327281613236565b9050919050565b7f4552433732313a20617070726f76652063616c6c6572206973206e6f7420746f60008201527f6b656e206f776e6572206e6f7220617070726f76656420666f7220616c6c0000602082015250565b60006132d5603e836129f2565b91506132e082613279565b604082019050919050565b60006020820190508181036000830152613304816132c8565b9050919050565b7f4e487b7100000000000000000000000000000000000000000000000000000000600052601160045260246000fd5b600061334582612a99565b915061335083612a99565b92508282039050818111156133685761336761330b565b5b92915050565b600061337982612a99565b915061338483612a99565b925082820190508082111561339c5761339b61330b565b5b92915050565b7f4e487b7100000000000000000000000000000000000000000000000000000000600052603260045260246000fd5b60006133dc82612a99565b91507fffffffffffffffffffffffffffffffffffffffffffffffffffffffffffffffff820361340e5761340d61330b565b5b600182019050919050565b7f4552433732313a2063616c6c6572206973206e6f7420746f6b656e206f776e6560008201527f72206e6f7220617070726f766564000000000000000000000000000000000000602082015250565b6000613475602e836129f2565b915061348082613419565b604082019050919050565b600060208201905081810360008301526134a481613468565b9050919050565b7f4552433732313a20696e76616c696420746f6b656e2049440000000000000000600082015250565b60006134e16018836129f2565b91506134ec826134ab565b602082019050919050565b60006020820190508181036000830152613510816134d4565b9050919050565b7f4552433732313a2061646472657373207a65726f206973206e6f74206120766160008201527f6c6964206f776e65720000000000000000000000000000000000000000000000602082015250565b60006135736029836129f2565b915061357e82613517565b604082019050919050565b600060208201905081810360008301526135a281613566565b9050919050565b7f4f6e6c79206f776e65722063616e207365742070726963650000000000000000600082015250565b60006135df6018836129f2565b91506135ea826135a9565b602082019050919050565b6000602082019050818103600083015261360e816135d2565b9050919050565b7f506c65617365207375626d6974207468652061736b696e67207072696365206960008201527f6e206f7264657220746f20636f6d706c65746520746865207075726368617365602082015250565b60006136716040836129f2565b915061367c82613615565b604082019050919050565b600060208201905081810360008301526136a081613664565b9050919050565b600081905092915050565b60006136bd826129e7565b6136c781856136a7565b93506136d7818560208601612a03565b80840191505092915050565b60006136ef82856136b2565b91506136fb82846136b2565b91508190509392505050565b7f4f6e6c79206974656d206f776e65722063616e20706572666f726d207468697360008201527f206f7065726174696f6e00000000000000000000000000000000000000000000602082015250565b6000613763602a836129f2565b915061376e82613707565b604082019050919050565b6000602082019050818103600083015261379281613756565b9050919050565b7f5072696365206d75737420626520657175616c20746f206c697374696e67207060008201527f7269636500000000000000000000000000000000000000000000000000000000602082015250565b60006137f56024836129f2565b915061380082613799565b604082019050919050565b60006020820190508181036000830152613824816137e8565b9050919050565b7f4552433732313a207472616e736665722066726f6d20696e636f72726563742060008201527f6f776e6572000000000000000000000000000000000000000000000000000000602082015250565b60006138876025836129f2565b91506138928261382b565b604082019050919050565b600060208201905081810360008301526138b68161387a565b9050919050565b7f4552433732313a207472616e7366657220746f20746865207a65726f2061646460008201527f7265737300000000000000000000000000000000000000000000000000000000602082015250565b60006139196024836129f2565b9150613924826138bd565b604082019050919050565b600060208201905081810360008301526139488161390c565b9050919050565b7f4552433732313a206d696e7420746f20746865207a65726f2061646472657373600082015250565b60006139856020836129f2565b91506139908261394f565b602082019050919050565b600060208201905081810360008301526139b481613978565b9050919050565b7f4552433732313a20746f6b656e20616c7265616479206d696e74656400000000600082015250565b60006139f1601c836129f2565b91506139fc826139bb565b602082019050919050565b60006020820190508181036000830152613a20816139e4565b9050919050565b7f45524337323155524953746f726167653a2055524920736574206f66206e6f6e60008201527f6578697374656e7420746f6b656e000000000000000000000000000000000000602082015250565b6000613a83602e836129f2565b9150613a8e82613a27565b604082019050919050565b60006020820190508181036000830152613ab281613a76565b9050919050565b60008190508160005260206000209050919050565b60006020601f8301049050919050565b600082821b905092915050565b600060088302613b1b7fffffffffffffffffffffffffffffffffffffffffffffffffffffffffffffffff82613ade565b613b258683613ade565b95508019841693508086168417925050509392505050565b6000819050919050565b6000613b62613b5d613b5884612a99565b613b3d565b612a99565b9050919050565b6000819050919050565b613b7c83613b47565b613b90613b8882613b69565b848454613aeb565b825550505050565b600090565b613ba5613b98565b613bb0818484613b73565b505050565b5b81811015613bd457613bc9600082613b9d565b600181019050613bb6565b5050565b601f821115613c1957613bea81613ab9565b613bf384613ace565b81016020851015613c02578190505b613c16613c0e85613ace565b830182613bb5565b50505b505050565b600082821c905092915050565b6000613c3c60001984600802613c1e565b1980831691505092915050565b6000613c558383613c2b565b9150826002028217905092915050565b613c6e826129e7565b67ffffffffffffffff811115613c8757613c86612df0565b5b613c9182546131b6565b613c9c828285613bd8565b600060209050601f831160018114613ccf5760008415613cbd578287015190505b613cc78582613c49565b865550613d2f565b601f198416613cdd86613ab9565b60005b82811015613d0557848901518255600182019150602085019450602081019050613ce0565b86831015613d225784890151613d1e601f891682613c2b565b8355505b6001600288020188555050505b505050505050565b7f5072696365206d7573742062652061746c656173742031000000000000000000600082015250565b6000613d6d6017836129f2565b9150613d7882613d37565b602082019050919050565b60006020820190508181036000830152613d9c81613d60565b9050919050565b7f5072696365206d75737420626520657175616c20746f206c697374696e67205060008201527f7269636500000000000000000000000000000000000000000000000000000000602082015250565b6000613dff6024836129f2565b9150613e0a82613da3565b604082019050919050565b60006020820190508181036000830152613e2e81613df2565b9050919050565b613e3e81612bff565b82525050565b600060a082019050613e596000830188612d3c565b613e666020830187613e35565b613e736040830186613e35565b613e806060830185612d3c565b613e8d60808301846129bd565b9695505050505050565b7f4552433732313a20617070726f766520746f2063616c6c657200000000000000600082015250565b6000613ecd6019836129f2565b9150613ed882613e97565b602082019050919050565b60006020820190508181036000830152613efc81613ec0565b9050919050565b7f4552433732313a207472616e7366657220746f206e6f6e20455243373231526560008201527f63656976657220696d706c656d656e7465720000000000000000000000000000602082015250565b6000613f5f6032836129f2565b9150613f6a82613f03565b604082019050919050565b60006020820190508181036000830152613f8e81613f52565b9050919050565b7f436f756e7465723a2064656372656d656e74206f766572666c6f770000000000600082015250565b6000613fcb601b836129f2565b9150613fd682613f95565b602082019050919050565b60006020820190508181036000830152613ffa81613fbe565b9050919050565b600081519050919050565b600082825260208201905092915050565b600061402882614001565b614032818561400c565b9350614042818560208601612a03565b61404b81612a2d565b840191505092915050565b600060808201905061406b6000830187612b2e565b6140786020830186612b2e565b6140856040830185612d3c565b8181036060830152614097818461401d565b905095945050505050565b6000815190506140b181612958565b92915050565b6000602082840312156140cd576140cc612922565b5b60006140db848285016140a2565b91505092915050565b7f4e487b7100000000000000000000000000000000000000000000000000000000600052601260045260246000fd5b600061411e82612a99565b915061412983612a99565b925082614139576141386140e4565b5b828204905092915050565b600061414f82612a99565b915061415a83612a99565b92508261416a576141696140e4565b5b82820690509291505056fea26469706673582212202b0388730834713d8c0678c822425baf6795df157c94accdbd0d642c98bf56c764736f6c63430008110033",
  "linkReferences": {},
  "deployedLinkReferences": {}
}